:100000000C9434000C9449000C9449000C94490061
:100010000C9449000C9449000C9449000C9449003C
:100020000C9449000C9449000C9449000C9449002C
:100030000C9449000C9449000C9449000C9449001C
:100040000C9449000C9449000C9449000C9449000C
:100050000C9449000C9449000C9449000C944900FC
:100060000C9449000C94490011241FBECFEFD8E036
:10007000DEBFCDBF11E0A0E0B1E0ECE6F3E002C0EE
:1000800005900D92AC33B107D9F70E949E000C94F5
:10009000B4010C9400008FEF8AB91BB808959091B9
:1000A000C00095FFFCCF8093C60008950F931F9367
:1000B000CF93DF938C0180E090E009C0EC012196A2
:1000C000F801E80FF91F80810E944F00CE018E30A9
:1000D0009105A4F3DF91CF911F910F9108956BB11A
:1000E000982F969520E8929FA0011124462B4BB99A
:1000F0009BB1282F217030E0002436952795079476
:10010000369527950794322F202D292B2BB908954A
:1001100020E030E00AC02FEF31EE94E02150304073
:100120009040E1F700C000009B01B9016F5F7F4F75
:10013000482F50E02417350774F30895CF93DF93C9
:10014000CDB7DEB72E970FB6F894DEBF0FBECDBF8A
:100150000E944B008BB18F718BB90E944101182F07
:100160001370812F0E946F00812F90E0880F991FDC
:10017000AC01440F551F440F551F440F551F481B1A
:10018000590B80E090E00EC0FC01E40FF51FEC5F1E
:10019000FE4F2081E1E0F0E0EC0FFD1FE80FF91FBA
:1001A000208301968E3091057CF30E944101982FA7
:1001B000917080FF02C085E38A832BB1892F90E084
:1001C000880F991F82959295907F9827807F982716
:1001D000822B8BB9CE0101960E9456000E944101EC
:1001E0008F708F5F0E948800B5CF8F929F92AF92E1
:1001F000BF92CF92DF92EF92FF92CF93DF93EC0109
:10020000688179818A819B816115710581059105DC
:1002100021F464E279ED8BE597E02DE133EF41E0E5
:1002200050E00E94510149015A019B01AC01A7EA2B
:10023000B1E40E9470016B017C01ACEEB4EFA5014A
:1002400094010E947E01DC01CB018C0D9D1DAE1D31
:10025000BF1DB7FF03C00197A109B04888839983E8
:10026000AA83BB839F77DF91CF91FF90EF90DF90C0
:10027000CF90BF90AF909F908F9008950E94F5000F
:10028000089580E091E00E94F5000895A0E0B0E0BC
:100290008093000190930101A0930201B0930301A8
:1002A0000895052E97FB1EF400940E94680157FDE7
:1002B00007D00E94830107FC03D04EF40C94680120
:1002C00050954095309521953F4F4F4F5F4F089582
:1002D00090958095709561957F4F8F4F9F4F0895B2
:1002E0000E94A501A59F900DB49F900DA49F800D25
:1002F000911D11240895B7FF0C9470010E947001A4
:10030000821B930B0895A1E21A2EAA1BBB1BFD01B1
:100310000DC0AA1FBB1FEE1FFF1FA217B307E407E4
:10032000F50720F0A21BB30BE40BF50B661F771F3C
:10033000881F991F1A9469F760957095809590951C
:100340009B01AC01BD01CF010895A29FB001B39FF5
:10035000C001A39F700D811D1124911DB29F700DCE
:0C036000811D1124911D0895F894FFCF19
:10036C000100000002303730303534333741394327
:10037C00440302303730303534333741374333039D
:10038C0002303730303534333741354331030230A6
:0C039C00373030353433374134433703F9
:00000001FF
