:100000000C9434000C9465010C9451000C94510034
:100010000C9451000C9451000C9451000C9451001C
:100020000C9451000C9451000C9451000C9453000A
:100030000C9451000C9451000C9451000C945100FC
:100040000C9451000C9451000C9451000C945100EC
:100050000C9451000C9451000C9451000C945100DC
:100060000C9451000C94510011241FBECFEFD8E026
:10007000DEBFCDBF11E0A0E0B1E0E0E6F3E002C0FA
:1000800005900D92AC30B107D9F721E0ACE0B1E0BA
:1000900001C01D92A331B207E1F70E942F010C9419
:1000A000AE010C9400001F920F920FB60F92112414
:1000B0008F9381E0809300018F910F900FBE0F907E
:1000C0001F9018958BE284B98AB18B7F8AB98BB166
:1000D00084608BB90895109280008BE0809381003A
:1000E000109285001092840088E09DE3909389002F
:1000F0008093880008951092850010928400EFE6A6
:10010000F0E08081826080830895EFE6F0E08081F6
:100110008D7F808308950F931F93CF93DF93AC015E
:100120008C011695079516950795169507959801D4
:10013000A5ECB0E20E949F01FC01F295E295EF7000
:10014000EF27FF70EF27CCE0D1E0EB8328EE33E020
:10015000E29FC001E39F900DF29F900D1124481B78
:10016000590B8A0116950795169507959801ABE7E7
:10017000B4E10E949F01FC01F695E795EA8324E62D
:100180002E9FC0012F9F900D1124481B590B9A01DF
:10019000ADECBCEC0E949F01FC01F695E795F6954D
:1001A000E795F695E795E983CF01880F991FEE0F44
:1001B000FF1FEE0FFF1FEE0FFF1FE80FF91F4E1B73
:1001C0005F0B4883DF91CF911F910F91089590E0CD
:1001D00018C025B12F7D25B9282F30E0092E02C087
:1001E000220F331F0A94E2F727FF04C025B12860CD
:1001F00025B903C025B1277F25B925B1206225B9CE
:100200009F5F983030F30895CF93DF930E948B0067
:1002100085B18D7F85B9CCE0D1E0E881F0E0EF5F7A
:10022000FE4F80810E94E700E981F0E0EF5FFE4F22
:1002300080810E94E700EA81F0E0EF5FFE4F80815D
:100240000E94E700EB81F0E0EF5FFE4F80810E94AB
:10025000E70085B1826085B9DF91CF9108950E9452
:1002600062000E946B008DB381608DBBE9E6F0E017
:10027000808182608083789485B18E7F85B980E0AB
:1002800090E00E940401809100018823E1F38091B5
:100290001101909112010E9404018091110190912D
:1002A00012018F30974250F4809111019091120108
:1002B0000196909312018093110104C010921201D3
:1002C0001092110110920001DECF1F920F920FB613
:1002D0000F9211242F933F934F935F936F937F93CC
:1002E0008F939F93AF93BF93EF93FF9380911001F0
:1002F000811106C081E0809310010E947B000EC036
:100300000E94850080911101909112010E940401C8
:10031000109210011092120110921101FF91EF91B1
:10032000BF91AF919F918F917F916F915F914F910D
:100330003F912F910F900FBE0F901F901895A29F85
:10034000B001B39FC001A39F700D811D1124911DA9
:10035000B29F700D811D1124911D0895F894FFCF57
:0C036000013F065B4F666D7D077F6F005C
:00000001FF
