S01F0000505331335F50657479616C696E414E5F4C6162375F70322E7372656324
S11300000C9434000C945D000C9451000C94510039
S11300100C9451000C9451000C9451000C94510018
S11300200C9451000C9451000C9451000C94510008
S11300300C9453000C9451000C9451000C945100F6
S11300400C9451000C9451000C94B2010C94510086
S11300500C9451000C946C000C9451000C945100BD
S11300600C9451000C94510011241FBECFEFD8E022
S1130070DEBFCDBF11E0A0E0B1E0EAEDF3E002C0E5
S113008005900D92A233B107D9F721E0A2E3B1E0C4
S113009001C01D92AA33B207E1F70E9467010C94D4
S11300A0EB010C9400001F920F920FB60F921124D3
S11300B00F900FBE0F901F9018951F920F920FB6BE
S11300C00F9211248F9381E0809333018F910F90CD
S11300D00FBE0F901F9018951F920F920FB60F929C
S11300E011248F939F93809178009091790090933D
S11300F035018093340181E0809332019F918F9187
S11301000F900FBE0F901F9018958BE284B91AB808
S11301108BB184608BB90895109280008BE080933A
S113012081001092850010928400EFE6F0E0808157
S1130130846080838AE196E09093890080938800AC
S113014090938B0080938A0008950F931F93CF930D
S1130150DF93AC018C0116950795169507951695B6
S113016007959801A5ECB0E20E94DC01FC01F29530
S1130170E295EF70EF27FF70EF27C6E3D1E0EB8342
S113018028EE33E0E29FC001E39F900DF29F900DB3
S11301901124481B590B8A01169507951695079546
S11301A09801ABE7B4E10E94DC01FC01F695E79508
S11301B0EA8324E62E9FC0012F9F900D1124481B33
S11301C0590B9A01ADECBCEC0E94DC01FC01F695E4
S11301D0E795F695E795F695E795E983CF01880FBE
S11301E0991FEE0FFF1FEE0FFF1FEE0FFF1FE80F0B
S11301F0F91F4E1B5F0B4883DF91CF911F910F9125
S113020008958EBD0DB407FEFDCF0895CF93DF93FF
S11302100E94A50085B18D7F85B9C6E3D1E0E88150
S1130220F0E0E050FF4F80810E940101E981F0E09D
S1130230E050FF4F80810E940101EA81F0E0E0502C
S1130240FF4F80810E940101EB81F0E0E050FF4FFD
S113025080810E94010185B1826085B9DF91CF91CF
S1130260089584B1886284B98DB581608DBD80E5BF
S11302708CBD85B1877D85B9089581E080937C002C
S113028085E080937B0088EA80937A00089588E172
S11302908093C10086E08093C2001092C5008CE078
S11302A08093C40008959091C00095FFFCCF809383
S11302B0C6000895CF93DF93EC0103C021960E94FA
S11302C0530188818111FACFDF91CF9108950E9463
S11302D085000E9431010E948C008DB381608DBB2A
S11302E0E9E6F0E08081826080830E943D010E9403
S11302F04701789485B18E7F85B980E090E00E94B3
S113030006018AE091E00E945A0180913301813014
S1130310E1F482E191E00E945A01C6E3D1E08B81CD
S1130320805D0E9453018A81805D0E94530189810E
S1130330805D0E9453018881805D0E9453018EE29A
S113034091E00E945A011092330180913201813070
S1130350E1F680913401909135010E9406011092DA
S11303603201D3CF1F920F920FB60F9211242F9305
S11303703F934F935F936F937F938F939F93AF9329
S1130380BF93EF93FF938091C600803221F48BE1F9
S113039091E00E945A01FF91EF91BF91AF919F911B
S11303A08F917F916F915F914F913F912F910F901A
S11303B00FBE0F901F901895A29FB001B39FC0016C
S11303C0A39F700D811D1124911DB29F700D811D7D
S10D03D01124911D0895F894FFCF45
S11303DA3F065B4F666D7D077F6F48656C6C6F0DDA
S11303EA0A0056616C7565203D20004974207761C6
S11303FA7320535041434520627574746F6E0D0A1D
S105040A0000EC
S9030000FC
