S01F0000505331335F50657479616C696E414E5F4C6162365F70312E7372656326
S11300000C9434000C9462000C9451000C94510034
S11300100C9451000C9451000C9451000C94510018
S11300200C9451000C9451000C9451000C94510008
S11300300C9451000C9451000C9453000C945100F6
S11300400C9451000C9451000C9451000C945100E8
S11300500C9451000C9451000C9451000C945100D8
S11300600C9451000C94510011241FBECFEFD8E022
S1130070DEBFCDBF11E0A0E0B1E0EEE7F2E002C0E8
S113008005900D92AC30B107D9F721E0ACE0B1E0B6
S113009001C01D92A331B207E1F70E94ED000C9458
S11300A03D010C9400001F920F920FB60F92112481
S11300B08F9381E0809300018F910F900FBE0F907A
S11300C01F9018951F920F920FB60F9211248F93C1
S11300D080911001811104C081E08093100104C05B
S11300E010921201109211018F910F900FBE0F9078
S11300F01F9018958FEF84B98FE087B988B91AB823
S11301008BB184608BB9089521E030E002C0220FE6
S1130110331F6A95E2F720952F7028B9E82FF0E095
S1130120EF5FFE4F808185B985EA9EE00197F1F784
S113013000C00000089582E084BD85E085BD16BC42
S113014080E187BDEEE6F0E08081826080830895DF
S1130150AC019C01369527953695279536952795BC
S1130160A5ECB0E20E942E01929582958F708927AA
S11301709F708927ECE0F1E08383638128E13CEF01
S1130180629FC001639F900D1124480F591F9A016B
S11301903695279536952795ABE7B4E10E942E0155
S11301A0969587958283828194E6899F40195109A7
S11301B011249A01ADECBCEC0E942E019695879512
S11301C09695879596958795818381819AE0899FF5
S11301D0401951091124408308950E947A000E9415
S11301E09B008DB381608DBBE9E6F0E08081826085
S11301F080837894809100018130E9F48091110129
S1130200909112010E94A800809111019091120115
S11302108F30974250F48091110190911201019610
S1130220909312018093110104C010921201109254
S1130230110110920001CCE0D1E08B8160E00E94BA
S113024084008A8161E00E948400898162E00E94C6
S11302508400888163E00E948400CCCFA29FB00117
S1130260B39FC001A39F700D811D1124911DB29FE6
S1110270700D811D1124911D0895F894FFCF87
S10F027E013F065B4F666D7D077F6F003B
S9030000FC
