S01500004C6162355F5A6164616E6965322E737265637E
S11300000C9434000C9453000C9451000C94510043
S11300100C9451000C9451000C9451000C94510018
S11300200C9451000C9451000C9451000C94510008
S11300300C9451000C9451000C9451000C945100F8
S11300400C9451000C9451000C9451000C945100E8
S11300500C9451000C9451000C9451000C945100D8
S11300600C9451000C94510011241FBECFEFD8E022
S1130070DEBFCDBF11E0A0E0B1E0E0EAF1E002C0F4
S113008005900D92AA30B107D9F721E0AAE0B1E0BA
S113009001C01D92AE30B207E1F70E946E000C94CD
S11300A0CE000C9400001F920F920FB60F921124F1
S11300B08F9380910D01811104C081E080930D0123
S11300C002C010920D0180910C018F5F80930C018E
S11300D08F910F900FBE0F901F9018958FEF84B9DA
S11300E087B98BEF8AB98BB184608BB98DB381608A
S11300F08DBBE9E6F0E08081826080837894809112
S11301000C01803111F410920C01E0910C018DEC82
S1130110E89FE12D1124E695E695E695F0E0E050A0
S1130120FF4F908190930B01E0910C01E89F812D8A
S11301301124869586958695880F982F990F990F87
S1130140890FE81BF0E0E050FF4F808180930A01A3
S113015084E08BB980910A0185B980910A01829566
S113016086958695837088B980910B019BB18370C5
S1130170892B8BB980910B0190E0880F991F887FA0
S113018099279BB1892B8BB92FEF8DEE92E02150EB
S113019080409040E1F700C00000B1CFF894FFCF59
S10D01A03F065B4F666D7D077F6F1D
S9030000FC
