S01800004C6162355F50657479616C696E5F70332E7372656321
S11300000C9434000C943E000C943E000C943E007E
S11300100C943E000C943E000C943E000C943E0064
S11300200C943E000C943E000C943E000C943E0054
S11300300C943E000C943E000C943E000C943E0044
S11300400C943E000C943E000C943E000C943E0034
S11300500C943E000C943E000C943E000C943E0024
S11300600C943E000C943E0011241FBECFEFD8E048
S1130070DEBFCDBF0E9440000C9466000C940000CB
S11300808FE784B985B1806885B980E01CC01F9B67
S11300900AC021E030E0082E02C0220F331F0A9468
S11300A0E2F725B909C020E230E0082E02C03595F8
S11300B027950A94E2F725B9EFE4F3EC3197F1F7C9
S11300C000C000008F5F863010F3DFCFF894FFCFBD
S9030000FC
