:100000000C9434000C9448000C9446000C94460068
:100010000C9446000C9446000C9446000C94460048
:100020000C9446000C9446000C9446000C94460038
:100030000C9446000C9446000C9446000C94460028
:100040000C9446000C9446000C9446000C94460018
:100050000C9446000C9446000C9446000C94460008
:100060000C9446000C94460011241FBECFEFD8E03C
:10007000DEBFCDBF21E0A0E0B1E001C01D92A23003
:10008000B207E1F70E946C000C9410010C94000080
:100090001F920F920FB60F9211248F9381E08093DD
:1000A00001018F910F900FBE0F901F9018958FEF49
:1000B00084B987B98BEF8AB908958AB18B7F8AB9E1
:1000C0008BB184608BB98DB381608DBBE9E6F0E0C4
:1000D00080818260808308950E9457000E945D00A5
:1000E000789420E083E090E0A0E0B0E0309101015E
:1000F0003323B1F010920101211104C087E090E098
:10010000A0E0B0E0213021F481E090E0A0E0B0E098
:100110002F5F233028F020E083E090E0A0E0B0E003
:10012000213071F018F02230A9F043C0880F991FD8
:10013000AA1FBB1F009738E0A307B10588F539C097
:10014000880F991FAA1FBB1F009748E0A407B1059D
:1001500060F52FC030910001311112C0880F991F36
:10016000AA1FBB1F8130910554E0A507B10508F116
:1001700081E08093000180E090E0A4E0B0E019C04D
:10018000B695A7959795879582309105A105B105FC
:1001900080F41092000181E090E0A0E0B0E009C09E
:1001A00083E090E0A0E0B0E004C087E090E0A0E051
:1001B000B0E085B934E03BB94BB16C017D01689486
:1001C00015F8F694E794D794C7941694D1F73C2D7C
:1001D0003370342B3BB94BB16C017D01689414F83A
:1001E000F694E794D794C7941694D1F73C2D387FB2
:1001F000342B3BB9AC01BD01032E3DE076956795EC
:10020000579547953A95D1F7302D48B93FEF45EAD4
:100210005EE0315040405040E1F700C0000066CF42
:04022000F894FFCF80
:00000001FF
