S01C0000505331335F4C6162395F50657479616C696E414E2E7372656326
S11300000C9434000C941B010C9451000C9451007A
S11300100C9451000C9451000C9451000C94510018
S11300200C9451000C9451000C9451000C94510008
S11300300C9453000C9451000C9451000C945100F6
S11300400C9451000C9451000C9461010C945100D7
S11300500C9451000C945D000C9451000C945100CC
S11300600C9451000C94510011241FBECFEFD8E022
S1130070DEBFCDBF11E0A0E0B1E0E6E9F7E002C0E9
S113008005900D92AC33B107D9F721E0ACE3B1E0B0
S113009001C01D92A434B207E1F70E94DD020C9462
S11300A0C9030C9400001F920F920FB60F921124F3
S11300B00F900FBE0F901F9018951F920F920FB6BE
S11300C00F9211248F939F938091780090917900DF
S11300D090934301809342019F918F910F900FBEA3
S11300E00F901F9018958FEF84B915B880E18AB9E5
S11300F08BB184618BB90895109280008BE080935A
S113010081001092850010928400EFE6F0E0808177
S11301108460808384ED90E39093890080938800C9
S113012090938B0080938A0008950F931F93CF932D
S1130130DF93AC018C0116950795169507951695D6
S113014007959801A5ECB0E20E94BA03FC01F29570
S1130150E295EF70EF27FF70EF27CEE3D1E0EB835A
S113016028EE33E0E29FC001E39F900DF29F900DD3
S11301701124481B590B8A01169507951695079566
S11301809801ABE7B4E10E94BA03FC01F695E79548
S1130190EA8324E62E9FC0012F9F900D1124481B53
S11301A0590B9A01ADECBCEC0E94BA03FC01F69524
S11301B0E795F695E795F695E795E983CF01880FDE
S11301C0991FEE0FFF1FEE0FFF1FEE0FFF1FE80F2B
S11301D0F91F4E1B5F0B4883DF91CF911F910F9145
S11301E0089581E080937C0085E080937B0088EA19
S11301F080937A00089588E98093C10086E0809313
S1130200C2001092C50087E68093C40008959091BF
S1130210C00095FFFCCF8093C6000895CF93DF9371
S1130220EC0103C021960E94070188818111FACF55
S1130230DF91CF9108951F920F920FB60F92112460
S11302402F933F934F935F936F937F938F939F93DA
S1130250AF93BF93CF93DF93EF93FF9380914201CA
S1130260909143010E94950080E091E00E940E016C
S1130270CEE3D1E08B81805D0E9407018A81805D9D
S11302800E9407018981805D0E9407018881805D49
S11302900E94070181E291E00E940E01FF91EF911B
S11302A0DF91CF91BF91AF919F918F917F916F918A
S11302B05F914F913F912F910F900FBE0F901F9020
S11302C018951F920F920FB60F9211242F933F93FC
S11302D04F935F936F937F938F939F93AF93BF934A
S11302E0EF93FF938091C600803221F489E091E07E
S11302F00E940E01FF91EF91BF91AF919F918F9159
S11303007F916F915F914F913F912F910F900FBE0D
S11303100F901F90189585B18F7D85B985B1806444
S113032085B984B1807F84B985B1806885B90000BE
S1130330000023B180E1289F9001112485B18F77BB
S113034085B900000000000085B1806885B900000F
S1130350000083B18F7095B19F7795B994B19F6078
S113036094B915B8822B0895CF93DF93C82FD62F55
S11303700E948B018823E4F325B130E2C39FC001BE
S11303801124822B85B985B1806885B985B1807FB8
S113039085B985B19D2F92959F70892B85B985B1BB
S11303A08F7785B900000000000085B1806885B9A9
S11303B085B1807F85B985B1DF70D82BD5B985B17A
S11303C08F7785B915B8DF91CF9108952FEF89EF15
S11303D090E0215080409040E1F700C0000085B1DA
S11303E08F7D85B983E085B995B1906895B9000092
S11303F00000000095B19F7795B915B8EFE0F7E2DA
S11304003197F1F700C0000095B19F7D95B985B98A
S113041095B1906895B900000000000095B19F77F0
S113042095B915B8EBE2F1E03197F1F700C000009F
S113043095B19F7D95B985B985B1806885B900006E
S11304400000000085B18F7785B915B88FE097E279
S11304500197F1F700C000000E948B018823E4F3A8
S113046085B18F7D85B982E085B985B1806885B90C
S113047000000000000085B18F7785B915B80E948F
S11304808B018823E4F368E280E00E94B4016CE00D
S113049080E00E94B40166E080E00E94B401089507
S11304A08AB180618AB98BB18F7E8BB987EE93E074
S11304B00197F1F700C000008BB180618BB98AB15C
S11304C08F7E8AB990EA9A95F1F74C9909C04C9BB2
S11304D0FECF87E493E00197F1F700C00000089590
S11304E086E191E00E940E01089595E09A95F1F756
S11304F000009AB190619AB99BB19F7E9BB99AE131
S11305009A95F1F700C0882339F08BB180618BB9DB
S113051080EF8A95F1F708958BB18F7E8BB990EFB8
S11305209A95F1F78BB180618BB9089585E08A952E
S1130530F1F700008AB180618AB98BB18F7E8BB9E3
S113054095E09A95F1F700008BB180618BB98AB17F
S11305508F7E8AB985E08A95F1F700004C9902C034
S113056080E001C081E090EF9A95F1F70895CF9370
S1130570DF93D82FC0E006C08D2F81700E947502D2
S1130580D695CF5FC830C0F3DF91CF910895CF9354
S1130590DF93C0E0D0E00BC00E94960290E00C2EE6
S11305A002C0880F991F0A94E2F7D82BCF5FC83096
S11305B098F38D2FDF91CF9108950E9473000E94CC
S11305C07C008DB381608DBBE9E6F0E080818260C0
S11305D080830E94F1000E94FB000E94E60178944F
S11305E084E291E00E940E0164E581E00E94B4017E
S11305F06DE381E00E94B40160E281E00E94B401F5
S113060060EC80E00E94B40166E581E00E94B401E0
S113061061E681E00E94B4016CE681E00E94B401CD
S113062065E781E00E94B40165E681E00E94B401BF
S11306306DE381E00E94B40160E281E00E94B401B4
S11306400E9450028CEC0E94B7028EE40E94B70212
S113065080E00E94B70280E00E94B7028FE30E940C
S1130660B70280914201909143010E94950067EC8A
S113067080E00E94B401CEE3D1E06B81605D81E053
S11306800E94B4016A81605D81E00E94B4016981C5
S1130690605D81E00E94B4016881605D81E00E9438
S11306A0B4010E9450028CEC0E94B70284E40E94C0
S11306B0B7020E9496028823E1F30E9450028CEC58
S11306C00E94B7028EEB0E94B7020E94C70290E01C
S11306D090933D0180933C010E94C70290E0982FC3
S11306E0882720913C0130913D01822B932B9093DC
S11306F03D0180933C0163E880E00E94B401E091F5
S11307003C01F0913D01EF2FFF27E295EF70E45D8E
S1130710FE4F608181E00E94B401E0913C01F091C0
S11307203D01EF2FFF27EF70FF27E45DFE4F60814F
S113073081E00E94B401E0913C01F0913D01F29509
S1130740E295EF70EF27FF70EF27EF70FF27E45D6E
S1130750FE4F608181E00E94B401E0913C01F09180
S11307603D01EF70FF27E45DFE4F608181E00E9450
S1130770B40177CFA29FB001B39FC001A39F700DB6
S1130780811D1124911DB29F700D811D1124911D95
S10907900895F894FFCF68
S113079656616C7565203D2000526F676572207442
S11307A66861740D0A004E6F20726573706F6E7304
S11307B6650D0A0048656C6C6F0D0A0030313233E2
S10F07C634353637383941424344454647
S9030000FC
