S01800004C6162355F50657479616C696E5F70322E7372656322
S11300000C9434000C943E000C943E000C943E007E
S11300100C943E000C943E000C943E000C943E0064
S11300200C943E000C943E000C943E000C943E0054
S11300300C943E000C943E000C943E000C943E0044
S11300400C943E000C943E000C943E000C943E0034
S11300500C943E000C943E000C943E000C943E0024
S11300600C943E000C943E0011241FBECFEFD8E048
S1130070DEBFCDBF0E9440000C9457000C940000DA
S11300808FEF84B980E010C021E030E0082E02C078
S1130090220F331F0A94E2F725B9EFE4F3EC31970A
S11300A0F1F700C000008F5F863070F3EBCFF89457
S10500B0FFCF7C
S9030000FC
