:100000000C9434000C9451000C9451000C94510049
:100010000C9451000C9451000C9451000C9451001C
:100020000C9451000C9451000C9451000C9451000C
:100030000C9453000C9451000C9451000C945100FA
:100040000C9451000C9451000C9451000C945100EC
:100050000C9451000C945D000C9451000C945100D0
:100060000C9451000C94510011241FBECFEFD8E026
:10007000DEBFCDBF11E0A0E0B1E0ECEDF2E002C0E8
:1000800005900D92AA30B107D9F721E0AAE0B1E0BE
:1000900001C01D92A131B207E1F70E9438010C9412
:1000A0006C010C9400001F920F920FB60F92112456
:1000B0000F900FBE0F901F9018951F920F920FB6C2
:1000C0000F9211248F939F938091780090917900E3
:1000D00090930C0180930B0181E080930A019F9122
:1000E0008F910F900FBE0F901F9018958BE284B9DF
:1000F0001AB88BB184608BB90895109280008BE0A0
:10010000809381001092850010928400EFE6F0E069
:100110008081846080838AE196E090938900809357
:10012000880090938B0080938A0008950F931F930B
:10013000CF93DF93AC018C01169507951695079523
:10014000169507959801A5ECB0E20E945D01FC01AF
:10015000F295E295EF70EF27FF70EF27CDE0D1E049
:10016000EB8328EE33E0E29FC001E39F900DF29F06
:10017000900D1124481B590B8A0116950795169569
:1001800007959801ABE7B4E10E945D01FC01F6958B
:10019000E795EA8324E62E9FC0012F9F900D11243E
:1001A000481B590B9A01ADECBCEC0E945D01FC01AF
:1001B000F695E795F695E795F695E795E983CF01EE
:1001C000880F991FEE0FFF1FEE0FFF1FEE0FFF1F8F
:1001D000E80FF91F4E1B5F0B4883DF91CF911F91F2
:1001E0000F9108958EBD0DB407FEFDCF0895CF93F6
:1001F000DF930E94960085B18D7F85B9CDE0D1E077
:10020000E881F0E0E050FF4F80810E94F200E98138
:10021000F0E0E050FF4F80810E94F200EA81F0E0C0
:10022000E050FF4F80810E94F200EB81F0E0E0504F
:10023000FF4F80810E94F20085B1826085B9DF9115
:10024000CF91089584B1886284B98DB581608DBDE8
:1002500080E58CBD85B1877D85B9089581E0809367
:100260007C0085E080937B0088EA80937A00089583
:100270000E9476000E9422010E947D008DB3816061
:100280008DBBE9E6F0E08081826080830E942E01D0
:10029000789485B18E7F85B980E090E00E94F70068
:1002A00080910A018130E1F780910B0190910C015E
:1002B0000E94F70010920A01F3CFA29FB001B39FF2
:1002C000C001A39F700D811D1124911DB29F700D5F
:0C02D000811D1124911D0895F894FFCFAA
:0A02DC003F065B4F666D7D077F6FE4
:00000001FF
