S01C0000505331335F4C6162375F50657479616C696E414E2E7372656328
S11300000C9434000C947A010C9451000C9451001B
S11300100C9451000C9451000C9451000C94510018
S11300200C9451000C9451000C9451000C94510008
S11300300C9453000C9451000C9451000C945100F6
S11300400C9451000C9451000C94BA010C9451007E
S11300500C9451000C945D000C9451000C945100CC
S11300600C9451000C94510011241FBECFEFD8E022
S1130070DEBFCDBF11E0A0E0B1E0EAEEF3E002C0E4
S113008005900D92A832B107D9F721E0A8E2B1E0BA
S113009001C01D92AE32B207E1F70E9455010C94E3
S11300A0F3010C9400001F920F920FB60F921124CB
S11300B00F900FBE0F901F9018951F920F920FB6BE
S11300C00F9211248F939F938091780090917900DF
S11300D090932901809328019F918F910F900FBED7
S11300E00F901F9018958BE284B91AB88BB1846075
S11300F08BB90895109280008BE080938100109258
S1130100850010928400EFE6F0E0808184608083B3
S11301108AE196E0909389008093880090938B0005
S113012080938A0008950F931F93CF93DF93AC01BC
S11301308C011695079516950795169507959801C0
S1130140A5ECB0E20E94E401FC01F295E295EF70A7
S1130150EF27FF70EF27CAE2D1E0EB8328EE33E00C
S1130160E29FC001E39F900DF29F900D1124481B64
S1130170590B8A0116950795169507959801ABE7D3
S1130180B4E10E94E401FC01F695E795EA8324E6D4
S11301902E9FC0012F9F900D1124481B590B9A01CB
S11301A0ADECBCEC0E94E401FC01F695E795F695F4
S11301B0E795F695E795E983CF01880F991FEE0F30
S11301C0FF1FEE0FFF1FEE0FFF1FE80FF91F4E1B5F
S11301D05F0B4883DF91CF911F910F9108958EBDDE
S11301E00DB407FEFDCF0895CF93DF930E949300D3
S11301F085B18D7F85B9CAE2D1E0E881F0E0E050B5
S1130200FF4F80810E94EF00E981F0E0E050FF4F52
S113021080810E94EF00EA81F0E0E050FF4F80818E
S11302200E94EF00EB81F0E0E050FF4F80810E94DC
S1130230EF0085B1826085B9DF91CF91089584B1D3
S1130240886284B98DB581608DBD80E58CBD85B132
S1130250877D85B9089581E080937C0085E0809353
S11302607B0088EA80937A00089588E98093C1002E
S113027086E08093C2001092C5008CE08093C40095
S113028008959091C00095FFFCCF8093C600089517
S1130290CF93DF93EC0103C021960E944101888132
S11302A08111FACFDF91CF9108950E9473000E94CB
S11302B01F010E947A008DB381608DBBE9E6F0E0F6
S11302C08081826080830E942B010E943501789492
S11302D085B18E7F85B980E090E00E94F4008AE0C9
S11302E091E00E94480180912801909129010E9487
S11302F0F400F9CF1F920F920FB60F9211242F938F
S11303003F934F935F936F937F938F939F93AF9399
S1130310BF93CF93DF93EF93FF9382E191E00E9429
S11303204801CAE2D1E08B81805D0E9441018A814B
S1130330805D0E9441018981805D0E944101888124
S1130340805D0E9441018FE091E00E944801FF918D
S1130350EF91DF91CF91BF91AF919F918F917F9159
S11303606F915F914F913F912F910F900FBE0F901E
S11303701F9018951F920F920FB60F9211242F936E
S11303803F934F935F936F937F938F939F93AF9319
S1130390BF93EF93FF938091C600803221F48BE1E9
S11303A091E00E944801FF91EF91BF91AF919F911D
S11303B08F917F916F915F914F913F912F910F900A
S11303C00FBE0F901F901895A29FB001B39FC0015C
S11303D0A39F700D811D1124911DB29F700D811D6D
S10D03E01124911D0895F894FFCF35
S11303EA3F065B4F666D7D077F6F48656C6C6F0DCA
S11303FA0A0056616C7565203D2000526F6765726C
S10B040A20746861740D0A00FE
S9030000FC
