S01800004C6162355F50657479616C696E5F70342E7372656320
S11300000C9434000C9449000C9449000C9449005D
S11300100C9449000C9449000C9449000C94490038
S11300200C9449000C9449000C9449000C94490028
S11300300C9449000C9449000C9449000C94490018
S11300400C9449000C9449000C9449000C94490008
S11300500C9449000C9449000C9449000C944900F8
S11300600C9449000C94490011241FBECFEFD8E032
S1130070DEBFCDBF11E0A0E0B1E0E2EFF0E002C0EE
S113008005900D92AA30B107D9F70E944B000C9449
S113009077000C9400008FEF84B98AB18B7F8AB902
S11300A08BB184608BB990E080E04A9908C04A9B88
S11300B0FECF811102C081E002C090E080E0811196
S11300C0F4CF9A3011F0E92F01C0E0E091E09E0FE7
S11300D0F0E0E050FF4F208125B92FE33DE043E0FD
S11300E0215030404040E1F700C00000DECFF894DA
S10500F0FFCF3C
S10D00F23F065B4F666D7D077F6FCC
S9030000FC
