S01C0000505331335F4C6162345F50657479616C696E414E2E737265632B
S11300000C9434000C943E000C943E000C943E007E
S11300100C943E000C943E000C943E000C943E0064
S11300200C943E000C943E000C943E000C943E0054
S11300300C943E000C943E000C943E000C943E0044
S11300400C943E000C943E000C943E000C943E0034
S11300500C943E000C943E000C943E000C943E0024
S11300600C943E000C943E0011241FBECFEFD8E048
S1130070DEBFCDBF0E9440000C945C000C940000D5
S11300808AB188608AB98AB18B7F8AB98BB184605E
S11300908BB94A9B04C08BB1877F8BB903C08BB1EA
S11300A088608BB92FE78AE497E121508040904023
S10F00B0E1F700C00000EDCFF894FFCF92
S9030000FC
