S01800004C6162355F50657479616C696E5F70352E737265631F
S11300000C9434000C9453000C9451000C94510043
S11300100C9451000C9451000C9451000C94510018
S11300200C9451000C9451000C9451000C94510008
S11300300C9451000C9451000C9451000C945100F8
S11300400C9451000C9451000C9451000C945100E8
S11300500C9451000C9451000C9451000C945100D8
S11300600C9451000C94510011241FBECFEFD8E022
S1130070DEBFCDBF11E0A0E0B1E0E4E3F1E002C0F7
S113008005900D92AA30B107D9F721E0AAE0B1E0BA
S113009001C01D92AC30B207E1F70E946B000C94D2
S11300A098000C9400001F920F920FB60F92112427
S11300B08F9380910B01811104C081E080930B0127
S11300C004C010920B0110920A018F910F900FBE81
S11300D00F901F9018958FEF84B98BB184608BB902
S11300E08DB381608DBBE9E6F0E08081826080831E
S11300F0789480910B018111FCCF80910A018A30A0
S113010011F410920A01E0910A0181E08E0F8093AC
S11301100A01F0E0E050FF4F808185B92FE986E8BD
S113012091E0215080409040E1F700C00000E1CF11
S1070130F894FFCF6D
S10D01343F065B4F666D7D077F6F89
S9030000FC
